:100000000C94AF490C94E0490C94E0490C94E049FD
:100010000C94E0490D94B5380C94E0490C94E049F7
:100020000D94493C0C94E0490C946CC10C94E0494B
:100030000C94E0490D9403580C94E0490C94E04969
:100040000C94E0490D94571F0C94E0490C94E0493E
:100050000C94E0490C94E0490D949D620D94E25893
:100060000C94E0490D94F5920C94E0490C94E0490D
:100070000C94E0490C94E0490C94E0490C94E0495C
:100080000C94E0490C94E0490C94E0490C94E0494C
:100090000D94B1920C94E0490C94E0490C94E04921
:1000A0000C94E0490C94E0490C94E0490C94E0492C
:1000B0000C94E0490C94E0490C94E0490C94E0491C
:1000C0000C94E0490C94E0490C94E0490D94D595CA
:1000D0000C94E0490C94E0490C94E0490C94E049FC
:1000E0000C94E049B065B665BC65C765D2655766D6
:1000F000DD65E665EF65FA650566106620662B66C8
:100100005766366641664C662AAE34AED5ADA3ADB1
:1001100072AD30B157AE82AF38B092B0AEB0E5B08C
:10012000FEBC02BD08BD11BD29BD46BD83BDB8BD25
:10013000A9F9A9F9ACF9A9F9ACF9AFF9B2F9AC018F
:10014000E601BE0158014E013A010802C601520102
:10015000BC01E00196013401EE015E0190019401C1
:100160008801D801A0017A010002D4013C019E015E
:10017000B201F6014A01840172018601E4016401C1
:10018000FE010A024601C2016E016601CE01E401D0
:100190003201C001EC01084AD73B3BCE016E84BC62
:1001A000BFFDC12F3D6C74319ABD56833DDA3D00D1
:1001B000C77F11BED9E4BB4C3E916BAAAABE00001A
:1001C00000803F05A84CCDB2D44EB93836A9020CF8
:1001D00050B9918688083CA6AAAA2ABE00000080D1
:1001E0003F07634236B79BD8A71A39685618AEBA8C
:1001F000AB558C1D3CB7CC5763BD6DEDFD753EF620
:10020000177231BF000000803F08000000BE92243A
:1002100049123EABAAAA2ABECDCCCC4C3E0000006F
:1002200080BEABAAAAAA3E00000000BF000000806A
:100230003F0000000000084178D3BB4387D1133D45
:10024000190E3CC3BD4282AD2B3E68EC8276BED90E
:100250008FE1A93E4C80EFFFBE01C4FF7F3F00004D
:10026000000000000D94F6550D9485320D9438561B
:100270000D9450B80D9424320D94064C0D94D82F43
:100280000D9452440D943C480D94202C0D94DE5551
:100290000D94928B0D94CC550D942F560D94EA31FC
:1002A0000D9460310D945F320D94D4560D94F2325A
:1002B0000D94DE310D94F95C0D94E8560D947E4B4F
:1002C0000D947FD20D941BB90D94D0550D94EC551F
:1002D0000D94BD560D9482440D940B2C0D94E8554D
:1002E0000D9454440D94BF550D94712E0D94CB482C
:1002F0000D94FD2F0D94D64B0D9488930D94B1560B
:100300000D9479300D94BA4A0D94BB550D94C55592
:100310000D94AA4B0D94C3560D94F8300D94C95604
:100320000D948E4B0D94DE560D94944B0D947032BB
:100330000D9429560D94E3560D942AB90D94214C31
:100340000D94D04B0D94B5300D9494B70D94162C9C
:100350000D947F2E0D94902E0D94A9310D94FEB81E
:100360000D94A9480D94314C0D94E1B80D943B3097
:100370000D94D82E0D947A2F0D9462320D94CF31B6
:100380000D94FA550D94E2550D94CF560D944F32BD
:100390000D94782E0D94202E0D94C4B80D94F05524
:1003A0000D94862E0D94A7B80D94F64B0D943BB981
:1003B0000D94CA4B0D9433560D948AB80D94B648DB
:1003C0000D9464320D94AE2E0D9403560D94BD31F0
:1003D0000D94F8560D94DA470D94FE550D9496320F
:1003E0000D942C310D94B7560D94D9560D94C955D2
:1003F0000D94D6480D9432B80D946DB80D94D45523
:100400000D94E64B0D944D2C0D9470D00D942A2C28
:100410000D9447320D94DA550D94F1470D946F9376
:100420000D94A22E5F5345435F4C414E47000000A0
:1004300000000000000000000000000000000000BC
:1004400000000000000000000000000000000000AC
:10045000000000000000000000000000000000009C
:10046000000000000000000000000000000000008C
:102D200000000000FFFF5072657373206B6E6F62CE
:102D300020746F2070726568656174206E6F7A7A96
:102D40006C6520616E6420636F6E74696E75652EAC
:102D500000FFFF506C6561736520707265737320AE
:102D6000746865206B6E6F6220746F20756E6C6F77
:102D700061642066696C616D656E7400FFFF526569
:102D80006D6F7665206F6C642066696C616D656E31
:102D90007420616E6420707265737320746865209E
:102DA0006B6E6F6220746F207374617274206C6F2D
:102DB0006164696E67206E65772066696C616D6518
:102DC0006E742E00FFFF616E642070726573732055
:102DD000746865206B6E6F6200FFFF496E736572E9
:102DE000742066696C616D656E7400FFFF436F6CE3
:102DF0006F72206E6F7420636F727265637400FF70
:102E0000FF46696C616D656E74206E6F74206C6F27
:102E10006164656400FFFF4368616E6765642063F9
:102E20006F72726563746C793F00FFFF4C6F616471
:102E3000696E6720636F6C6F7200FFFF4368616E9D
:102E4000676520737563636573732100FFFF506CC2
:102E500065617365206F70656E2069646C657220B2
:102E6000616E642072656D6F76652066696C616D58
:102E7000656E74206D616E75616C6C792E00FFFF5C
:102E80005761732066696C616D656E7420756E6C38
:102E90006F6164207375636365737366756C3F005F
:102EA000FFFF506C656173652075706772616465C2
:102EB0002E00FFFF4E6577206669726D776172653F
:102EC0002076657273696F6E20617661696C6162EC
:102ED0006C653A00FFFF57616974696E6720666F21
:102EE000722050494E44412070726F626520636FBA
:102EF0006F6C696E6700FFFF4372617368206465E1
:102F00007465637465642E20526573756D652070F9
:102F100072696E743F00FFFF4372617368206465DD
:102F20007465637465642E00FFFF43686F6F73659B
:102F30002065787472756465723A00FFFF45787495
:102F4000727564657200FFFF43686F6F736520667A
:102F5000696C616D656E743A00FFFF4E6F206D6F96
:102F600076652E00FFFF5761697420666F722075C9
:102F70007365722E2E2E00FFFF536F6D65207072E9
:102F80006F626C656D20656E636F756E74657265DA
:102F9000642C205A2D6C6576656C696E6720656EB1
:102FA000666F72636564202E2E2E00FFFF537461DE
:102FB000626C6520616D6269656E742074656D7008
:102FC000657261747572652032312D323643206925
:102FD00073206E6565646564206120726967696449
:102FE000207374616E6420697320726571756972F3
:102FF00065642E00FFFF506C656173652072756E0D
:103000002058595A2063616C6962726174696F6EED
:103010002066697273742E00FFFF5072696E74200F
:103020007368697420626162792100FFFF426C61FC
:10303000636B6F7574206F636375727265642E20A5
:103040005265636F766572207072696E743F00FF1F
:10305000FF53656C66746573742077696C6C2062CD
:10306000652072756E20746F2063616C6962726195
:1030700074652061636375726174652073656E7336
:103080006F726C657373207265686F6D696E672E01
:1030900000FFFF5468657265206973207374696C62
:1030A0006C2061206E65656420746F206D616B65B6
:1030B000205A2063616C6962726174696F6E2E20A0
:1030C000506C6561736520666F6C6C6F77207468F7
:1030D00065206D616E75616C2C206368617074652C
:1030E000722046697273742073746570732C207338
:1030F000656374696F6E2043616C696272617469A3
:103100006F6E20666C6F772E00FFFF5072696E74D1
:10311000657220686173206E6F74206265656E2031
:1031200063616C69627261746564207965742E20D4
:10313000506C6561736520666F6C6C6F7720746886
:1031400065206D616E75616C2C20636861707465BB
:10315000722046697273742073746570732C2073C7
:10316000656374696F6E2043616C69627261746932
:103170006F6E20666C6F772E00FFFF4F6C642073BC
:10318000657474696E677320666F756E642E204473
:10319000656661756C74205049442C2045737465D4
:1031A0007073206574632E2077696C6C20626520D3
:1031B0007365742E00FFFF5761726E696E673A2067
:1031C000626F7468207072696E74657220747970B1
:1031D0006520616E64206D6F74686572626F6172E4
:1031E000642074797065206368616E6765642E0081
:1031F000FFFF5761726E696E673A207072696E7474
:1032000065722074797065206368616E6765642EED
:1032100000FFFF5761726E696E673A206D6F7468C8
:103220006572626F61726420747970652063686191
:103230006E6765642E00FFFF58595A2063616C6900
:1032400062726174696F6E20616C6C20726967686C
:10325000742E20536B65772077696C6C2062652033
:10326000636F72726563746564206175746F6D61FC
:10327000746963616C6C792E00FFFF58595A2063A2
:10328000616C6962726174696F6E20616C6C20722E
:10329000696768742E20582F592061786573206102
:1032A000726520736C696768746C7920736B6577DD
:1032B00065642E20476F6F64206A6F622100FFFFF4
:1032C00058595A2063616C6962726174696F6E202B
:1032D0006F6B2E20582F59206178657320617265BD
:1032E0002070657270656E646963756C61722E2002
:1032F000436F6E67726174756C6174696F6E732170
:1033000000FFFF58595A2063616C696272617469E9
:103310006F6E20636F6D70726F6D697365642E20C0
:1033200052696768742066726F6E742063616C699D
:1033300062726174696F6E20706F696E74206E6F57
:103340007420726561636861626C652E00FFFF58CE
:10335000595A2063616C6962726174696F6E20638F
:103360006F6D70726F6D697365642E2046726F6E3B
:10337000742063616C6962726174696F6E20706F32
:10338000696E7473206E6F74207265616368616228
:103390006C652E00FFFF58595A2063616C69627298
:1033A0006174696F6E206661696C65642E20526974
:1033B0006768742066726F6E742063616C696272F4
:1033C0006174696F6E20706F696E74206E6F742007
:1033D000726561636861626C652E00FFFF58595A1F
:1033E0002063616C6962726174696F6E20666169E5
:1033F0006C65642E2046726F6E742063616C696226
:10340000726174696F6E20706F696E7473206E6F75
:103410007420726561636861626C652E00FFFF58FD
:10342000595A2063616C6962726174696F6E2066BB
:1034300061696C65642E20506C6561736520636FF3
:103440006E73756C7420746865206D616E75616C47
:103450002E00FFFF58595A2063616C6962726174D3
:10346000696F6E206661696C65642E204265642018
:1034700063616C6962726174696F6E20706F696EEE
:103480007420776173206E6F7420666F756E642E82
:1034900000FFFF506C6561736520706C616365208F
:1034A000737465656C207368656574206F6E206841
:1034B0006561746265642E00FFFF44697374616E18
:1034C0006365206265747765656E20746970206F2E
:1034D0006620746865206E6F7A7A6C6520616E6410
:1034E0002074686520626564207375726661636527
:1034F00020686173206E6F74206265656E2073654D
:1035000074207965742E20506C6561736520666F38
:103510006C6C6F7720746865206D616E75616C2CC2
:1035200020636861707465722046697273742073D9
:10353000746570732C2073656374696F6E204669BF
:10354000727374206C617965722063616C69627258
:103550006174696F6E2E00FFFF506C6163652061BE
:10356000207368656574206F6620706170657220D5
:10357000756E64657220746865206E6F7A7A6C650A
:1035800020647572696E67207468652063616C6978
:1035900062726174696F6E206F66206669727374FF
:1035A000203420706F696E74732E20496620746811
:1035B00065206E6F7A7A6C652063617463686573E9
:1035C000207468652070617065722C20706F77655B
:1035D00072206F666620746865207072696E74650B
:1035E0007220696D6D6564696174656C792E00FF88
:1035F000FF506C656173652072656D6F7665207331
:103600007465656C2073686565742066726F6D20E3
:10361000686561746265642E00FFFF4973207374EE
:1036200065656C207368656574206F6E20686561E0
:10363000746265643F00FFFF206F66203400FFFF67
:10364000536561726368696E6720626564206361B7
:103650006C6962726174696F6E20706F696E74005C
:10366000FFFF206F66203900FFFF4D6561737572A3
:10367000696E67207265666572656E636520686550
:1036800069676874206F662063616C696272617437
:10369000696F6E20706F696E7400FFFF506C65611A
:1036A000736520636C65616E20746865206E6F7A47
:1036B0007A6C6520666F722063616C6962726174F6
:1036C000696F6E2E20436C69636B207768656E208E
:1036D000646F6E652E00FFFF4175746F20686F6D1B
:1036E0006500FFFF506C65617365207570646174DF
:1036F00065206669726D7761726520696E20796FE9
:103700007572204D4D55322E2057616974696E6770
:1037100020666F722072657365742E00FFFF4D4D39
:1037200055204F4B2E20526573756D696E672E2E96
:103730002E00FFFF4D4D55204F4B2E2052657375C7
:103740006D696E6720706F736974696F6E2E2E2EAF
:1037500000FFFF4D4D55204F4B2E20526573756D68
:10376000696E672074656D70657261747572652E1F
:103770002E2E00FFFF4669782074686520697373F8
:10378000756520616E64207468656E207072657363
:103790007320627574746F6E206F6E204D4D5520CE
:1037A000756E69742E00FFFF507265737320746824
:1037B00065206B6E6F6220746F20726573756D6526
:1037C000206E6F7A7A6C652074656D7065726174B5
:1037D0007572652E00FFFF4D4D55206E6565647353
:1037E000207573657220617474656E74696F6E2ED6
:1037F00000FFFF506C656173652072656D6F7665C3
:103800002066696C616D656E7420616E64207468F9
:10381000656E20707265737320746865206B6E6FBF
:10382000622E00FFFF456A656374696E67206669F2
:103830006C616D656E7400FFFF4D4D55206C6F61BE
:1038400064206661696C6564202020202000FFFFF1
:10385000205B6F66665D00FFFF426564206C6576E5
:10386000656C696E67206661696C65642E205365BE
:103870006E736F72206469646E7420747269676716
:1038800065722E20446562726973206F6E206E6FC0
:103890007A7A6C653F2057616974696E6720666F3C
:1038A000722072657365742E00FFFF53544F5050A1
:1038B00045442E2000FFFF50494E44412048656199
:1038C00074696E6700FFFF54656D702E2063616C34
:1038D0002E2020202020202020202000FFFF4361D8
:1038E0006C6962726174696F6E20646F6E6500FF4F
:1038F000FF43616C6962726174696E67205A00FFF0
:10390000FF42656420646F6E6500FFFF47696D6D5F
:103910006520612073656300FFFF48656174696E0F
:103920006720646F6E652E00FFFF48656174696EE5
:103930006700FFFF5B303B305D20706F696E742065
:103940006F666673657400FFFF41646A757374691E
:103950006E67205A00FFFF526573657400FFFF52C7
:103960006561722073696465205B756D5D00FFFFA2
:1039700046726F6E7420736964655B756D5D00FFE0
:10398000FF526967687420736964655B756D5D00DB
:10399000FFFF4C6566742073696465205B756D5D1F
:1039A00000FFFF5365742074656D706572617475F6
:1039B00072653A00FFFF54656D70657261747572CF
:1039C000652063616C6962726174696F6E20666103
:1039D000696C656400FFFF54656D70657261747594
:1039E00072652063616C6962726174696F6E2069CF
:1039F000732066696E697368656420616E64206116
:103A000063746976652E2054656D702E2063616C39
:103A10006962726174696F6E2063616E20626520F5
:103A200064697361626C656420696E206D656E7592
:103A30002053657474696E67732D3E54656D702EE6
:103A40002063616C2E00FFFF4E2F4100FFFF2020FE
:103A50003000FFFF20203100FFFF49523A00FFFFF6
:103A600046494E44413A00FFFF50494E44413A0016
:103A7000FFFF53656E736F7220737461746500FF8E
:103A8000FF53706F6F6C4A6F696E2020205B4E2F62
:103A9000415D00FFFF53706F6F6C4A6F696E2020AD
:103AA000205B6F66665D00FFFF53706F6F6C4A6F3F
:103AB000696E202020205B6F6E5D00FFFF536F75E5
:103AC0006E642020202020205B6C6F75645D00FFF9
:103AD000FF536F756E642020202020205B6D75746D
:103AE000655D00FFFF536F756E64202020205B73BF
:103AF000696C656E745D00FFFF536F756E64202006
:103B0000202020205B6F6E63655D00FFFF536F75A3
:103B10006E642020202020205B6C6F75645D00FFA8
:103B2000FF536F7274202020202020205B6E6F6E68
:103B3000655D00FFFF536F72742020205B616C7025
:103B400068616265745D00FFFF536F72742020200E
:103B5000202020205B74696D655D00FFFF534420C9
:103B60006361726420205B6E6F726D616C5D00FF3B
:103B7000FF53442063617264205B666C7368416923
:103B8000725D00FFFF53656C656374206C616E6746
:103B90007561676500FFFF52506920706F72742075
:103BA000202020205B6F6E5D00FFFF525069207067
:103BB0006F7274202020205B6F66665D00FFFF54EB
:103BC000656D702E2063616C2E2020205B6F6E5D12
:103BD00000FFFF54656D702E2063616C2E20205B0A
:103BE0006F66665D00FFFF4C696E2E20636F727218
:103BF000656374696F6E00FFFF4D657368206265D1
:103C000064206C6576656C696E6700FFFF4D4D55ED
:103C1000204D6F64655B537465616C74685D00FF73
:103C2000FF4D4D55204D6F6465205B4E6F726D6189
:103C30006C5D00FFFF46616E7320636865636B20F7
:103C4000205B6F66665D00FFFF46616E73206368F0
:103C500065636B2020205B6F6E5D00FFFF462E20AA
:103C60006175746F6C6F6164205B6F66665D00FFE9
:103C7000FF462E206175746F6C6F616420205B6F4E
:103C80006E5D00FFFF462E206175746F6C6F61647E
:103C9000205B4E2F415D00FFFF46696C2E2073654F
:103CA0006E736F72205B4E2F415D00FFFF4469739E
:103CB00061626C6520737465707065727300FFFFDC
:103CC0004D6F7665206178697300FFFF54656D70F4
:103CD0006572617475726500FFFF54656D702E200A
:103CE00063616C6962726174696F6E00FFFF526597
:103CF0007365742058595A2063616C6962722E0092
:103D0000FFFF5049442063616C6962726174696F9E
:103D10006E00FFFF426564206C6576656C20636F02
:103D2000727265637400FFFF4D65736820426564BD
:103D3000204C6576656C696E6700FFFF43616C69B6
:103D40006272617465205A00FFFF43616C696272A0
:103D50006174652058595A00FFFF53656C6674659D
:103D6000737420202020202020202000FFFF46699F
:103D7000727374206C617965722063616C2E00FF30
:103D8000FF57697A61726400FFFF4C6F61642066BF
:103D9000696C616D656E74203500FFFF4C6F616466
:103DA0002066696C616D656E74203400FFFF4C6F96
:103DB00061642066696C616D656E74203300FFFF7D
:103DC0004C6F61642066696C616D656E74203200B1
:103DD000FFFF4C6F61642066696C616D656E7420D5
:103DE0003100FFFF4C6F616420616C6C00FFFF4C81
:103DF0006F61642066696C616D656E74203500FFCB
:103E0000FF4C6F61642066696C616D656E7420346F
:103E100000FFFF4C6F61642066696C616D656E74B4
:103E2000203300FFFF4C6F61642066696C616D6533
:103E30006E74203200FFFF4C6F61642066696C6114
:103E40006D656E74203100FFFF456A6563742066FE
:103E5000696C616D656E74203500FFFF456A6563AE
:103E6000742066696C616D656E74203400FFFF45D7
:103E70006A6563742066696C616D656E74203300D9
:103E8000FFFF456A6563742066696C616D656E74D9
:103E9000203200FFFF456A6563742066696C616DBE
:103EA000656E74203100FFFF506C65617365207092
:103EB000756C6C206F75742066696C616D656E74CD
:103EC00020696D6D6564696174656C7900FFFF55EB
:103ED0006E6C6F6164696E672066696C616D656E9A
:103EE0007400FFFF526573756D696E6720707269AB
:103EF0006E7400FFFF537570706F727400FFFF46A1
:103F000061696C207374617473204D4D5500FFFF1F
:103F10004661696C20737461747300FFFF537461B0
:103F200074697374696373202000FFFF43616C69D7
:103F300062726174696F6E00FFFF4175746F4C6F40
:103F400061642066696C616D656E7400FFFF456A8F
:103F50006563742066696C616D656E7400FFFF5562
:103F60006E6C6F61642066696C616D656E7400FFD4
:103F7000FF4C6F616420746F206E6F7A7A6C6500FD
:103F8000FFFF4C6F61642066696C616D656E740043
:103F9000FFFF4E6F205344206361726400FFFF52A5
:103FA0006573756D65207072696E7400FFFF5061F6
:103FB000757365207072696E7400FFFF50726568DA
:103FC00065617400FFFF54756E6500FFFF4C6976F4
:103FD000652061646A757374205A00FFFF496E663C
:103FE0006F2073637265656E00FFFF546F74616CC0
:103FF00000FFFF4C617374207072696E7400FFFFE4
:104000004C617374207072696E74206661696C759E
:1040100072657300FFFF4D4D55206661696C73003A
:10402000FFFF4D4D55206C6F6164206661696C73B4
:1040300000FFFF546F74616C206661696C75726576
:104040007300FFFF4D4D55206661696C7300FFFFE3
:104050004D4D55206C6F6164206661696C7300FF83
:10406000FF4D4D5520706F776572206661696C73E6
:1040700000FFFF546F74616C206661696C75726536
:104080007300FFFF506F776572206661696C75720F
:10409000657300FFFF46696C616D2E2072756E6F4F
:1040A00075747300FFFF437261736800FFFF4C611A
:1040B0007374207072696E74206661696C757265C4
:1040C0007300FFFF506F776572206661696C7572CF
:1040D000657300FFFF46696C616D2E2072756E6F0F
:1040E00075747300FFFF437261736800FFFF546FC4
:1040F00074616C00FFFF4C617374207072696E74A0
:1041000000FFFF416D6269656E7400FFFF4E6F7ABC
:104110007A6C6500FFFF42656400FFFF42656C74C6
:104120002073746174757300FFFF436F6F6C646F6D
:10413000776E00FFFF566F6C746167657300FFFF59
:1041400054656D70657261747572657300FFFF422E
:10415000656C742073746174757300FFFF53656E32
:10416000736F7220696E666F00FFFF457874727519
:1041700064657220696E666F00FFFF58595A2063AC
:10418000616C2E2064657461696C7300FFFF756E4D
:104190006B6E6F776E00FFFF4D4D553220636F6E73
:1041A0006E656374656400FFFF446174653A00FFE7
:1041B000FF686F77746F2E707275736133642E634E
:1041C0006F6D00FFFF666F72756D2E707275736193
:1041D00033642E636F6D00FFFF707275736133641B
:1041E0002E636F6D00FFFF746F20756E6C6F6164DE
:1041F0002066696C616D656E7400FFFF746F206CE2
:104200006F61642066696C616D656E7400FFFF50BC
:104210007265737320746865206B6E6F6200FFFFB8
:104220003E43616E63656C00FFFF507265686561B7
:1042300074696E6720746F2063757400FFFF50729D
:104240006568656174696E6720746F20656A65636F
:104250007400FFFF50726568656174696E67207451
:104260006F20756E6C6F616400FFFF50726568654A
:104270006174696E6720746F206C6F616400FFFF6A
:104280005072656865617420746865206E6F7A7A13
:104290006C652100FFFF4552524F523A00FFFF4626
:1042A000696C616D656E7420657874727564696E91
:1042B000672026207769746820636F727265637463
:1042C00020636F6C6F723F00FFFF4175746F6C6FFE
:1042D0006164696E672066696C616D656E742069E2
:1042E00073206163746976652C206A75737420701D
:1042F0007265737320746865206B6E6F6220616EE7
:104300006420696E736572742066696C616D656E98
:10431000742E2E2E00FFFF546F74616C2066696C42
:10432000616D656E7400FFFF546F74616C20707274
:10433000696E742074696D6500FFFF46696C616D7C
:10434000656E74207573656400FFFF5072696E744A
:104350002074696D6500FFFF592064697374616E94
:1043600063652066726F6D206D696E00FFFF4C659E
:10437000667400FFFF526967687400FFFF4D656156
:10438000737572656420736B657700FFFF536C690A
:1043900067687420736B657700FFFF5365766572FD
:1043A0006520736B657700FFFF4E6F742073706933
:1043B0006E6E696E6700FFFF5370696E6E696E679F
:1043C00000FFFF4C65667420686F74656E6420663C
:1043D000616E3F00FFFF46726F6E74207072696EEF
:1043E000742066616E3F00FFFF46616E2074657346
:1043F0007400FFFF536F7274696E672066696C65A5
:104400007300FFFF536F6D652066696C65732077DD
:10441000696C6C206E6F7420626520736F727465B6
:10442000642E204D61782E204E6F2E206F66206600
:10443000696C657320696E203120666F6C646572EB
:1044400020666F7220736F7274696E6720697320C3
:104450003130302E00FFFF43757272656E7400FFBD
:10446000FF5573656420647572696E6720707269A8
:104470006E7400FFFF5049442063616C2E20666912
:104480006E697368656400FFFF5049442063616C86
:104490002E202020202020202020202000FFFF5040
:1044A0006C65617365207761697400FFFF4D313180
:1044B00037204669727374206C617965722063617C
:1044C0006C2E00FFFF5072696E7420706175736509
:1044D0006400FFFF457874727564657200FFFF4DDC
:1044E0006F7665205A00FFFF4D6F7665205900FFFB
:1044F000FF4D6F7665205800FFFF1B5B324A437209
:1045000061736820646574656374696F6E206361AC
:104510006E1B5B313B30486265207475726E65645A
:10452000206F6E206F6E6C7920696E1B5B323B30A2
:10453000484E6F726D616C206D6F646500FFFF1BEC
:104540005B324A5741524E494E473A1B5B313B3032
:1045500048437261736820646574656374696F6E43
:104560001B5B323B304864697361626C656420692F
:104570006E1B5B333B3048537465616C7468206D0F
:104580006F646500FFFF4175746F6C6F6164696EE5
:10459000672066696C616D656E7420617661696C17
:1045A00061626C65206F6E6C79207768656E20663D
:1045B000696C616D656E742073656E736F722069CE
:1045C00073207475726E6564206F6E2E2E2E00FF40
:1045D000FF4552524F523A2046696C616D656E74C8
:1045E0002073656E736F72206973206E6F74207212
:1045F0006573706F6E64696E672C20706C65617393
:104600006520636865636B20636F6E6E65637469B4
:104610006F6E2E00FFFF4D6F6465206368616E67EB
:104620006520696E2070726F6772657373202E2E1D
:104630002E00FFFF436F70792073656C65637465AE
:1046400064206C616E67756167653F00FFFF4361C1
:104650006C69627261746500FFFF506C656173651F
:10466000206C6F616420504C412066696C616D65FF
:104670006E742066697273742E00FFFF49732050B8
:104680004C412066696C616D656E74206C6F61646D
:1046900065643F00FFFF53656C65637420504C41B7
:1046A0002066696C616D656E743A00FFFF46696C47
:1046B000616D656E7400FFFF43616E63656C00FFA2
:1046C000FF52756E6E696E672057697A6172642059
:1046D00077696C6C2064656C6574652063757272B3
:1046E000656E742063616C6962726174696F6E20BB
:1046F000726573756C747320616E6420737461727B
:10470000742066726F6D2074686520626567696EDB
:104710006E696E672E20436F6E74696E75653F001B
:10472000FFFF50726568656174696E67206E6F7A0D
:104730007A6C652E20506C656173652077616974B1
:104740002E00FFFF55736520756E6C6F61642074D9
:104750006F2072656D6F76652066696C616D656E40
:104760007420312069662069742070726F747275CC
:10477000646573206F757473696465206F66207457
:1047800068652072656172204D4D552074756265B3
:104790002E2055736520656A6563742069662069FB
:1047A000742069732068696464656E20696E207482
:1047B0007562652E00FFFF556E6C6F616400FFFF30
:1047C000456A65637400FFFF4C6F6164696E672022
:1047D00066696C616D656E7400FFFF506C65617396
:1047E0006520696E7365727420504C412066696C57
:1047F000616D656E7420746F2074686520657874CF
:1048000072756465722C207468656E2070726573B1
:1048100073206B6E6F6220746F206C6F616420690F
:10482000742E00FFFF506C6561736520696E7365BF
:10483000727420504C412066696C616D656E742005
:10484000746F207468652066697273742074756271
:1048500065206F66204D4D552C207468656E207064
:104860007265737320746865206B6E6F6220746F5D
:10487000206C6F61642069742E00FFFF596F7520F2
:1048800063616E20616C7761797320726573756DF9
:1048900065207468652057697A6172642066726F5A
:1048A0006D2043616C6962726174696F6E202D3E88
:1048B0002057697A6172642E00FFFF506C65617346
:1048C0006520636865636B206F75722068616E6434
:1048D000626F6F6B20616E64206669782074686512
:1048E0002070726F626C656D2E205468656E207248
:1048F0006573756D65207468652057697A617264A7
:10490000206279207265626F6F74696E67207468C7
:1049100065207072696E7465722E00FFFF416C6CC9
:1049200020697320646F6E652E2048617070792055
:104930007072696E74696E672100FFFF506C65616B
:10494000736520636C65616E20686561746265647F
:1049500020616E64207468656E20707265737320C8
:10496000746865206B6E6F622E00FFFF446F2079C4
:104970006F752077616E7420746F20726570656149
:1049800074206C617374207374657020746F20726E
:104990006561646A7573742064697374616E6365BC
:1049A000206265747765656E206E6F7A7A6C65201B
:1049B000616E6420686561746265643F00FFFF4951
:1049C0002077696C6C20737461727420746F20702E
:1049D00072696E74206C696E6520616E6420796FF7
:1049E000752077696C6C206772616475616C6C7995
:1049F000206C6F77657220746865206E6F7A7A6CB0
:104A00006520627920726F746174696E67207468C2
:104A100065206B6E6F622C20756E74696C20796FE7
:104A200075207265616368206F7074696D616C20B8
:104A30006865696768742E20436865636B207468D5
:104A40006520706963747572657320696E206F7577
:104A5000722068616E64626F6F6B20696E2063689C
:104A600061707465722043616C6962726174696F10
:104A70006E2E00FFFF4E6F7720492077696C6C2007
:104A800063616C6962726174652064697374616EDC
:104A90006365206265747765656E20746970206F48
:104AA0006620746865206E6F7A7A6C6520616E642A
:104AB0002068656174626564207375726661636500
:104AC0002E00FFFF497320697420504C4120666915
:104AD0006C616D656E743F00FFFF53656C656374B8
:104AE000206E6F7A7A6C65207072656865617420DB
:104AF00074656D706572617475726520776869633D
:104B000068206D61746368657320796F7572206DBC
:104B10006174657269616C2E00FFFF4E6F772049EA
:104B20002077696C6C2070726568656174206E6FA7
:104B30007A7A6C6520666F7220504C412E00FFFF20
:104B400049732066696C616D656E74206C6F616479
:104B500065643F00FFFF49732066696C616D656E97
:104B6000742031206C6F616465643F00FFFF4E6FFD
:104B70007720492077696C6C207072656865617474
:104B8000206E6F7A7A6C6520666F7220504C412ED1
:104B900000FFFF492077696C6C2072756E207A20C7
:104BA00063616C6962726174696F6E206E6F772EDB
:104BB00000FFFF4E6F772072656D6F766520746819
:104BC000652074657374207072696E742066726FEC
:104BD0006D20737465656C2073686565742E00FFC5
:104BE000FF506C656173652072656D6F766520732B
:104BF00068697070696E672068656C706572732093
:104C000066697273742E00FFFF492077696C6C200F
:104C100072756E2078797A2063616C696272617452
:104C2000696F6E206E6F772E2049742077696C6CE7
:104C30002074616B6520617070726F782E20313244
:104C4000206D696E732E00FFFF46697273742C200D
:104C5000492077696C6C2072756E207468652073CA
:104C6000656C667465737420746F20636865636B2C
:104C7000206D6F737420636F6D6D6F6E2061737341
:104C8000656D626C792070726F626C656D732E0059
:104C9000FFFF48692C204920616D20796F757220D3
:104CA0004F726967696E616C20507275736120691B
:104CB00033207072696E7465722E20576F756C6444
:104CC00020796F75206C696B65206D6520746F208D
:104CD000677569646520796F75207468726F756790
:104CE00068207468652073657475702070726F63D6
:104CF0006573733F00FFFF452D636F7272656374C8
:104D000000FFFF5A2D636F727265637400FFFF59D5
:104D10002D636F727265637400FFFF582D636F72AD
:104D20007265637400FFFF5265636F766572696E2A
:104D300067207072696E742020202000FFFF466992
:104D40006E697368696E67206D6F76656D656E74E8
:104D50007300FFFF536F756E642020202020205BBE
:104D60006C6F75645D00FFFF536F756E64202020CB
:104D70002020205B6D7574655D00FFFF536F756EBD
:104D800064202020205B73696C656E745D00FFFFFA
:104D9000536F756E642020202020205B6F6E63654A
:104DA0005D00FFFF536F756E642020202020205B84
:104DB0006C6F75645D00FFFF4D4D55204D6F646550
:104DC0005B537465616C74685D00FFFF4D4D552049
:104DD0004D6F6465205B4E6F726D616C5D00FFFF0F
:104DE0004372617368206465742E20205B4E2F41EE
:104DF0005D00FFFF4372617368206465742E20209C
:104E0000205B6F6E5D00FFFF437261736820646515
:104E1000742E20205B6F66665D00FFFF4D6F64653A
:104E2000202020205B537465616C74685D00FFFF77
:104E30004D6F646520202020205B4E6F726D616C89
:104E40005D00FFFF46696C2E2073656E736F7220E4
:104E5000205B6F6E5D00FFFF46696C2E2073656EF0
:104E6000736F72205B6F66665D00FFFF4368616E63
:104E700067652066696C616D656E7400FFFF466C46
:104E80006F7700FFFF537065656400FFFF4D61673A
:104E90006E65747320636F6D702E5B4E2F415D00E5
:104EA000FFFF4D61676E65747320636F6D702E5BDD
:104EB0004F66665D00FFFF4D61676E65747320632A
:104EC0006F6D702E205B4F6E5D00FFFF5A2D70726C
:104ED0006F6265206E722E202020205B335D00FF04
:104EE000FF5A2D70726F6265206E722E2020202076
:104EF0005B355D00FFFF5A2D70726F6265206E7228
:104F00002E202020205B315D00FFFF4D657368205F
:104F100020202020202020205B3778375D00FFFFF5
:104F20004D6573682020202020202020205B3378CE
:104F3000335D00FFFF46616E20737065656400FF9E
:104F4000FF42656400FFFF4E6F7A7A6C6500FFFFD9
:104F500053657474696E677300FFFF5072696E74F5
:104F60002061626F7274656400FFFF53746F70207C
:104F70007072696E7400FFFF46696C6520696E632C
:104F80006F6D706C6574652E20436F6E74696E75FD
:104F90006520616E797761793F00FFFF5072696E1D
:104FA000742066726F6D20534400FFFF4261636B93
:104FB00000FFFF4D61696E00FFFF57616974696E04
:104FC0006720666F72206E6F7A7A6C6520616E64FE
:104FD0002062656420636F6F6C696E6700FFFF532A
:104FE000656C662074657374204F4B00FFFF53653A
:104FF0006C66207465737420737461727420200071
:10500000FFFF46616C73652074726967676572693A
:105010006E6700FFFF5377617070656400FFFF46A5
:10502000726F6E742F6C6566742066616E7300FF1C
:10503000FF4178697300FFFF41786973206C656EEA
:1050400067746800FFFF4C6F6F73652070756C6C40
:10505000657900FFFF456E6473746F70206E6F7426
:105060002068697400FFFF456E6473746F7000FF01
:10507000FF4D6F746F7200FFFF456E6473746F7045
:105080007300FFFF576972696E67206572726F72F5
:1050900000FFFF426564202F20486561746572003F
:1050A000FFFF4E6F7420636F6E6E656374656400FE
:1050B000FFFF4865617465722F546865726D69738E
:1050C000746F7200FFFF506C6561736520636865E3
:1050D000636B203A00FFFF53656C66746573742040
:1050E0006572726F72202100FFFF46696C616D6509
:1050F0006E742073656E736F7200FFFF5072696E7D
:10510000742066616E3A00FFFF45787472756465BD
:10511000722066616E3A00FFFF43616C69627261E2
:1051200074696E6720686F6D6500FFFF53656C667C
:1051300074657374206661696C6564202000FFFFEC
:10514000416C6C20636F7272656374202020202094
:105150002000FFFF436865636B696E672073656EAF
:10516000736F72732000FFFF436865636B696E673E
:1051700020686F74656E64202000FFFF43686563DC
:105180006B696E6720626564202020202000FFFF8D
:10519000436865636B696E67205A20617869732084
:1051A0002000FFFF436865636B696E6720592061CB
:1051B000786973202000FFFF436865636B696E6741
:1051C00020582061786973202000FFFF43686563E1
:1051D0006B696E6720656E6473746F707300FFFF98
:1051E0004572726F72202D20737461746963206D33
:1051F000656D6F727920686173206265656E206FDE
:105200007665727772697474656E00FFFF43617230
:10521000642072656D6F76656400FFFF4865617498
:10522000696E672064697361626C656420627920CD
:105230007361666574792074696D65722E00FFFF75
:105240004E6F7A7A6C652046414E00FFFF507269BE
:105250006E742046414E00FFFF59657300FFFF4EFC
:105260006F002564206279746573207772697474A5
:10527000656E20746F20454550524F4D206174205B
:10528000616464726573732030782530347800442B
:1052900033202D20526561642F5772697465204553
:1052A0004550524F4D0A0020436F756E7420583A96
:1052B00020005344207072696E74696E67206279B1
:1052C000746520004E6F7420696E206661726D20D7
:1052D0006D6F64652E00416374697665204578744E
:1052E00072756465723A2000496E76616C6964205B
:1052F0006578747275646572005A204F66667365CE
:105300007400556E6B6E6F776E20636F6D6D616E9E
:10531000643A2022004D32303020496E76616C694B
:105320006420657874727564657220007A5F6D61BF
:10533000783A20007A5F6D696E3A2000795F6D617E
:10534000783A2000795F6D696E3A2000785F6D6170
:10535000783A20006F70656E0054524947474552B5
:10536000454400785F6D696E3A20005265706F7237
:1053700074696E6720656E6473746F7020737461F6
:10538000747573000053494C454E54004E4F524DB6
:10539000414C002553204D4F44453A2050657263DF
:1053A000656E7420646F6E653A2025643B207072D0
:1053B000696E742074696D652072656D61696E69CE
:1053C0006E6720696E206D696E733A2025640A004D
:1053D000456E642066696C65206C69737400426573
:1053E00067696E2066696C65206C697374000A5089
:1053F000494E44412074656D7065726174757265C3
:105400003A20252E3166205A207368696674202858
:105410006D6D293A20252E3366000A537465703A63
:105420002025642F360A000A537465703A202564DB
:105430002F362028736B6970706564290A50494EB5
:1054400044412074656D70657261747572653A20AF
:105450002564205A20736869667420286D6D293A86
:10546000300A000A5A45524F3A20252E33660A0068
:1054700073746172742074656D7065726174757295
:10548000653A20252E31660A0025642020252E321B
:105490006600255320583A20252E356620593A209B
:1054A000252E3566205A3A20252E35660A00536C83
:1054B0006565702E2E2E004E6F7420696E20666119
:1054C000726D206D6F64652E0025640045303A25AD
:1054D000642052504D0A50524E303A2564205250AA
:1054E0004D0A002564001B5B324A1B5B303B304891
:1054F00045787465726E616C2053504920666C610A
:1055000073681B5B313B3048573235583230434C5F
:10551000206973206E6F74207265732D1B5B323BA4
:105520003048706F6E64696E672E204C616E6775CF
:105530006167651B5B333B30487377697463682030
:10554000756E617661696C61626C652E0043726193
:1055500073684465746563742044495341424C4503
:105560004400437261736844657465637420454EFA
:1055700041424C45442100573235583230434C208B
:105580006E6F7420726573706F6E64696E672E0A39
:10559000002020506C616E6E6572427566666572A1
:1055A00042797465733A20002046726565204D6526
:1055B0006D6F72793A2000207C20417574686F729B
:1055C0003A2000204C6173742055706461746564E6
:1055D0003A200020536F66747761726520526573BC
:1055E000657400205761746368646F672052657347
:1055F0006574002042726F776E206F75742052655B
:10560000736574002045787465726E616C20526514
:1056100073657400506F7765725570006572726FB4
:10562000722077726974696E6720746F2066696C86
:105630006500656E6473746F7073206869743A20D6
:1056400000446F6E6520736176696E672066696CD1
:10565000652E006F6B0025632533642F2564256359
:1056600000656E717565696E67202200446F6E6516
:10567000207072696E74696E672066696C6500508F
:1056800072696E7465722073746F707065642064E3
:10569000756520746F206572726F72732E20466973
:1056A0007820746865206572726F7220616E642064
:1056B000757365204D39393920746F2072657374A4
:1056C0006172742E202854656D70657261747572F4
:1056D000652069732072657365742E20536574208C
:1056E0006974206166746572207265737461727486
:1056F000696E6729004E6F204C696E65204E756D8E
:10570000626572207769746820636865636B73757E
:105710006D2C204C617374204C696E653A20004EEC
:105720006F20436865636B73756D207769746820BB
:105730006C696E65206E756D6265722C204C6173AC
:1057400074204C696E653A2000636865636B7375FD
:105750006D206D69736D617463682C204C61737486
:10576000204C696E653A20004C696E65204E756D5F
:10577000626572206973206E6F74204C61737420AF
:105780004C696E65204E756D6265722B312C204C14
:10579000617374204C696E653A20006673656E73A0
:1057A0006F725F6175746F6C6F61645F636865636E
:1057B0006B5F7374617274202D206175746F6C6FF0
:1057C000616420454E41424C45440A006673656E53
:1057D000736F725F6175746F6C6F61645F6368652E
:1057E000636B5F73746F70202D206175746F6C6FC5
:1057F00061642044495341424C45440A00544D439E
:1058000020445249564552204F56455254454D501A
:105810000025632533642F25642563005A25362E21
:10582000326620005A2020202D2D2D2000256325B2
:1058300033642525002D2D2D00253368686400254F
:105840003353253373252500555342002020200073
:10585000205344002025753E257500203F3E2575C8
:1058600000204625750020463F00204630202000BD
:1058700025632D2D3A2D2D202000256325337568B5
:105880002025632563002563253032753A253032A3
:105890007525632563001B5B324A2553203A1B5B49
:1058A000313B394825382E3266206D0A2553203A7F
:1058B0000A25376C6464203A253268686468203AA7
:1058C000253032686864206D001B5B324A25533AEC
:1058D0001B5B313B364825382E32666D200A255336
:1058E000203A1B5B333B3848253264682025303230
:1058F000646D2025303264730025362E32666D6D5E
:10590000004E2F41001B5B303B304825533A0A259F
:10591000530A25533A0A25533A001B5B303B313575
:10592000484E2F41001B5B303B31354825342E3229
:105930006601001B5B303B304825533A0A25530A69
:1059400025533A202025352E3266010A25533A2068
:105950002025352E3266010043616E6E6F7420651E
:105960006E746572207375626469723A20005344E4
:105970002063617264206F6B006F70656E526F6F91
:1059800074206661696C656400766F6C756D652E58
:10599000696E6974206661696C65640053442069AE
:1059A0006E6974206661696C0057726974696E670C
:1059B00020746F2066696C653A200046696C65202A
:1059C00073656C6563746564002053697A653A2079
:1059D0000046696C65206F70656E65643A200057FB
:1059E000697A61726420656E642073746174653ACB
:1059F0002025640A004B494C4C45442E200050722F
:105A0000696E7465722068616C7465642E206B69C0
:105A10006C6C28292063616C6C656421004B494CD7
:105A20004C3A2025640A004D31303420496E7661AD
:105A30006C696420657874727564657220004D31FC
:105A4000303520496E76616C6964206578747275B2
:105A500064657220004D31303920496E76616C6981
:105A60006420657874727564657220004D32313837
:105A700020496E76616C696420657874727564651E
:105A80007220004D32323120496E76616C6964209B
:105A90006578747275646572200055564C4F202DE0
:105AA00020656E642025640A007374707325640A8F
:105AB00000776F726C6420636F6F7264696E6174DB
:105AC00065733A2028252E33662C20252E33662C2C
:105AD00020252E3366290A00706879736963616C2A
:105AE00020636F6F7264696E617465733A20282554
:105AF0002E33662C20252E33662C20252E33662946
:105B00000A0043757272656E7420706F73205A5F5D
:105B1000415849533A252E33660A43757272656EB1
:105B20007420706F7320455F415849533A252E33D6
:105B3000660A0041667465722077616974696E67F0
:105B400020666F722074656D703A0A4375727265D3
:105B50006E7420706F7320585F415849533A252E58
:105B600033660A43757272656E7420706F732059C4
:105B70005F415849533A252E33660A0041786973CC
:105B8000206C656E67746820646966666572656E10
:105B900063653A252E33660A004D6561737572653B
:105BA000642061786973206C656E6774683A252E8D
:105BB00033660A006F70656E206661696C65642CDF
:105BC0002046696C653A200020746F6F206C6F6E00
:105BD0006720657874727573696F6E207072657670
:105BE000656E7465640020636F6C64206578747200
:105BF0007573696F6E2070726576656E746564008A
:105C00003F3F00506F6C736B69004974616C696150
:105C10006E6F004672616E636169730045737061F7
:105C20006E6F6C00446575747363680043657374CC
:105C3000696E6100456E676C6973680052657365D3
:105C40006E640025533A20256C640A25530A00200F
:105C500079645F6D696E3D25752079645F6D61784B
:105C60003D25752079645F6176673D2575207368F1
:105C70005F6176673D25750A002073745F73756DEB
:105C80003D25752079645F73756D3D2575206572BE
:105C90005F73756D3D25752065725F6D61783D257B
:105CA0006868750A000046696C2E2058643A2533EE
:105CB000642059643A2533640A496E743A202533C6
:105CC000642020536875743A202533640046696C5B
:105CD000616D656E742073656E736F720A697320EF
:105CE00064697361626C65642E001B5B303B3048F5
:105CF00025533A202534642052504D0A25533A202A
:105D0000202534642052504D0A006E616E00696E89
:105D100066004E414E494E495459494E46CDCCCC71
:105D20003D0AD7233C17B7D13877CC2B329595E66F
:105D3000241FB14F0A000020410000C84200401C4F
:105D40004620BCBE4CCA1B0E5AAEC59D7400407A9C
:105D500010F35A00A0724E18090010A5D4E80000F4
:105D6000E87648170000E40B54020000CA9A3B0092
:105D70000000E1F505000080969800000040420F09
:105D8000000000A08601000000102700000000E8CD
:105D900003000000006400000000000A0000000092
:105DA000000100000000002C76D888DC674F082333
:105DB000DFC1DFAE59E1B1B796E5E3E453C63AE699
:105DC00051997696E8E6C28426EB898C9B62ED4079
:105DD0007C6FFCEFBC9C9F40F2BAA56FA5F49005C8
:105DE0005A2AF75C936B6CF9676DC11BFCE0E40DFC
:105DF00047FEF520E6B500D0ED902E0300943577F0
:105E0000050080841E080000204E0A000000C80C17
:105E1000333333330F986E12831141EF8D21148980
:105E20003BE65516CFFEE6DB18D1844B381BF77CDA
:105E30001D901DA4BBE424203284725E228100C91F
:105E4000F124ECA1E53D276364696E6F707375788A
:105E5000585B00442D31202D20456E646C657373B2
:105E6000206C6F6F700A004175746F0020452F44DD
:105E70003D00416476616E6365204B3D004D3232DA
:105E8000302053256900255346696C616D656E7439
:105E90002073657474696E67733A20446973616234
:105EA0006C65640A00255346696C616D656E7420EB
:105EB00073657474696E67733A0A25532020204D08
:105EC0003230302044252E32660A00255352657444
:105ED000726163743A20533D4C656E677468202884
:105EE0006D6D2920463A537065656420286D6D2FCD
:105EF0006D29205A3A205A4C69667420286D6D2904
:105F00000A25532020204D3230372053252E32666B
:105F10002046252E3266205A252E32660A255352F7
:105F200065636F7665723A20533D457874726120DF
:105F30006C656E67746820286D6D2920463A537031
:105F400065656420286D6D2F6D290A25532020205A
:105F50004D3230382053252E32662046252E3266AB
:105F60000A25534175746F2D526574726163743ADA
:105F700020533D3020746F2064697361626C652C1E
:105F8000203120746F20696E7465727072657420A0
:105F9000657874727564652D6F6E6C79206D6F769F
:105FA0006573206173207265747261637473206F0E
:105FB00072207265636F7665726965730A25532076
:105FC00020204D323039205325640A002553504992
:105FD0004420686561746265642073657474696ED9
:105FE00067733A0A25532020204D33303420502542
:105FF0002E32662049252E32662044252E32660A2E
:106000000025535049442073657474696E67733A70
:106010000A25532020204D3330312050252E326662
:106020002049252E32662044252E32660A0025534B
:1060300053746570732070657220756E69743A0AC6
:10604000255320204D39322058252E3266205925DF
:106050002E3266205A252E32662045252E32660ABB
:1060600025534D6178696D756D2066656564726153
:10607000746573202D206E6F726D616C20286D6DBC
:106080002F73293A0A255320204D323033205825CA
:106090002E32662059252E3266205A252E32662051
:1060A00045252E32660A25534D6178696D756D2040
:1060B000666565647261746573202D207374656113
:1060C0006C746820286D6D2F73293A0A255320209F
:1060D0004D3230332058252E32662059252E326617
:1060E000205A252E32662045252E32660A25534D2C
:1060F0006178696D756D20616363656C657261744B
:10610000696F6E202D206E6F726D616C20286D6D31
:106110002F7332293A0A255320204D32303120582E
:10612000256C752059256C75205A256C75204525E0
:106130006C750A25534D6178696D756D20616363D7
:10614000656C65726174696F6E202D207374656172
:106150006C746820286D6D2F7332293A0A255320FC
:10616000204D3230312058256C752059256C752012
:106170005A256C752045256C750A25534163636566
:106180006C65726174696F6E3A20533D616363653B
:106190006C65726174696F6E2C20543D7265747207
:1061A00061637420616363656C65726174696F6EAD
:1061B0000A255320204D3230342053252E326620BC
:1061C00054252E32660A2553416476616E636564F8
:1061D000207661726961626C65733A20533D4D6946
:1061E0006E20666565647261746520286D6D2F731D
:1061F000292C20543D4D696E2074726176656C20A7
:10620000666565647261746520286D6D2F73292C35
:1062100020423D6D696E696D756D207365676D65B2
:106220006E742074696D6520286D73292C20583D8B
:106230006D6178696D756D205859206A65726B20A3
:10624000286D6D2F73292C20205A3D6D6178696D62
:10625000756D205A206A65726B20286D6D2F732929
:106260002C2020453D6D6178696D756D2045206A53
:1062700065726B20286D6D2F73290A255320204DE0
:106280003230352053252E32662054252E3266209A
:1062900042252E32662058252E32662059252E3270
:1062A00066205A252E32662045252E32660A255351
:1062B000486F6D65206F666673657420286D6D2963
:1062C0003A0A255320204D3230362058252E32668A
:1062D0002059252E3266205A252E32660A00462580
:1062E000642025640A004D4D55203C3D202746255D
:1062F00064202564270A00504944204175746F7456
:10630000756E652066696E697368656421205075D5
:106310007420746865206C617374204B702C204B62
:106320006920616E64204B6420636F6E7374616ECC
:1063300074732066726F6D2061626F766520696E7E
:10634000746F20436F6E66696775726174696F6EF2
:106350002E6800504944204175746F74756E652035
:106360006661696C6564212074696D656F75740080
:1063700020403A00543A00423A00504944204175C6
:10638000746F74756E65206661696C656421205454
:10639000656D706572617475726520746F6F2068C9
:1063A00069676800204B643A2000204B693A20005E
:1063B000204B703A200020436C6173736963205056
:1063C000494420002054753A2000204B753A2000A3
:1063D000206D61783A2000206D696E3A20002064BB
:1063E0003A200020626961733A200020453A00207B
:1063F0005A3A0020593A0020453A00205A3A0020E3
:10640000593A00583A00005A30005A3100593000C9
:10641000593100583000583100456E642073746F54
:1064200070732064696167002E0044656C6574694F
:106430006F6E206661696C65642C2046696C653AF4
:10644000200046696C652064656C657465643A007B
:106450004E6F74205344207072696E74696E6700C9
:106460005072696E742073617665640053442070C5
:1064700072696E7420706175736564000A002F0084
:106480000A002F2F20616374696F6E3A63616E6337
:10649000656C0043524153485F43414E43454C00B5
:1064A00043524153485F5245434F56455200435271
:1064B0004153485F5245434F5645520022283229E6
:1064C0000054004475706C696361746520542D63D9
:1064D0006F64652069676E6F7265642E0A0044758B
:1064E000706C696361746520542D636F6465206905
:1064F000676E6F7265642E0A00496E76616C69641E
:10650000205420636F64652E00556E6B6E6F776E3E
:10651000204D20636F64653A202573200A006E6F5A
:106520002076616C696420636F6D6D616E64002C10
:1065300020002C20002C20006E2F61002C20002C2D
:1065400020002C20006E2F61002F00503A00576170
:10655000697420666F722050494E44412074617204
:106560006765742074656D70657261747572653AE3
:10657000004C414E472053454C20464F5243454422
:1065800000222831290030303030303030302D308A
:106590003030302D303030302D303030302D303004
:1065A00030303030303030303030002055554944B4
:1065B0003A0031002045585452554445525F434FEC
:1065C000554E543A005072757361206933204D4B1B
:1065D0003300204D414348494E455F545950453A98
:1065E00000312E3000206261736564206F6E204D93
:1065F00061726C696E204649524D574152455F5554
:10660000524C3A68747470733A2F2F6769746875C6
:10661000622E636F6D2F707275736133642F5072C9
:106620007573612D4669726D776172652050524FA6
:10663000544F434F4C5F56455253494F4E3A0046D4
:1066400049524D574152455F4E414D453A50727542
:1066500073612D4669726D7761726520004D31312D
:106660003320530020423A0020453A00543A00209B
:10667000413A0020503A002042403A0020403A007F
:10668000202F003A00205400202F0020423A002002
:106690002F006F6B20543A002569206D696E2C2005
:1066A00025692073656300496E76616C6964204DCD
:1066B00020636F64653A202573200A00556E6B6E67
:1066C0006F776E204720636F64653A202573200A38
:1066D000004D65736820626564206C6576656C6941
:1066E0006E67206E6F74206163746976652E000A90
:1066F000002020000A4D6561737572656420706F1B
:10670000696E74733A000A5A207365617263682077
:106710006865696768743A20002C004E756D2058D2
:106720002C593A2000206D6963726F6E73004578B2
:106730006365737369766520626564206C65766550
:106740006C696E6720636F7272656374696F6E3A0D
:106750002000426564206C6576656C696E67206612
:1067600061696C65642E2053656E736F722074725C
:106770006967676572656420746F6F206869676810
:106780002E0A00426564206C6576656C696E672030
:106790006661696C65642E2053656E736F72206448
:1067A0006973636F6E6E6563746564206F722063D6
:1067B00061626C652062726F6B656E2E0A004732F3
:1067C000382057300050494E44412070726F626546
:1067D0002063616C6962726174696F6E20737461A9
:1067E000727400473238205730004D323400534520
:1067F000545F43484F505F005345545F53544550D6
:106800005F005345545F574156455F00544D435F09
:106810000043524153485F0073746172740A001B55
:106820005B333B31484C616E6775616765207570FD
:10683000646174652E006164635F696E69740A0047
:1068400000202D20496E76616C6964206578747231
:1068500075646572206E756D6265722021001B5B28
:10686000324A1B5B313B31484F726967696E616C1C
:106870002050727573612069331B5B323B33485083
:106880007275736120526573656172636800466159
:1068900063746F7279205245534554004A616E20EB
:1068A0003134203230323000436F6D70696C656472
:1068B0003A2000286E6F6E652C2064656661756CE9
:1068C0007420636F6E66696729004A616E203134F7
:1068D00020323032302031343A31393A30350020EC
:1068E000332E372E312D323236360A002055706C59
:1068F0006F616420696E2070726F677265737300D8
:10690000205A3A0020593A0020583A004352415345
:10691000485F444554454354454458590043524107
:1069200053485F44455445435445445900435241FC
:1069300053485F444554454354454458004D32390B
:106940000078797A63616C5F6D65617373757265E8
:106950005F656E7465720A0078797A63616C5F7343
:10696000706972616C382063783D25642063793DDD
:106970002564207A303D256420647A3D25642072A8
:1069800061646975733D25642061643D25640A0076
:1069900078797A63616C5F7365617263685A206E9F
:1069A0006F207369676E616C0A20783D256C6420E6
:1069B000793D256C64207A3D256C640A00204F4E99
:1069C0002D5349474E414C20617420783D25642069
:1069D000793D2564207A3D25642061643D25640A63
:1069E0000078797A63616C5F7365617263685A20BD
:1069F000783D256C6420793D256C64207A3D256CBA
:106A0000640A000A00253032780078797A63616C74
:106A10005F7363616E5F706978656C735F33327842
:106A200033322063783D25642063793D2564206DF1
:106A3000696E5F7A3D2564206D61785F7A3D2564DB
:106A40000A00202532642025640A000A002530321D
:106A50007800206D696E3D2564206D61783D256468
:106A6000206469663D25640A006D61785F633D2599
:106A70003264206D61785F6C3D25640A006D617839
:106A80005F633D2564206D61785F723D2564206DF4
:106A900061785F6D617463683D25640A0020783D0C
:106AA000256420793D2564207A3D25640A00207004
:106AB00061747465726E20666F756E6420617420F7
:106AC00025642025640A000000F000F801FC03FEA4
:106AD00007FE07FE07FE07FC03F801F00000007345
:106AE000697A656F6628746F74616C293D25640A44
:106AF0000073697A656F6628626C6F636B5F62759D
:106B000066666572293D25640A0078797A63616C4E
:106B10005F6D656173737572655F6C656176650A3B
:106B200000706F696E743D256420783D256420797E
:106B30003D2564207A3D25640A0058025802584DCC
:106B4000584DB004F055F055B00478797A63616C13
:106B50005F66696E645F6265645F696E64756374C5
:106B6000696F6E5F73656E736F725F706F696E745D
:106B70005F787920783D256C6420793D256C642010
:106B80007A3D256C640A00203C20005741524E4952
:106B90004E473A2046726F6E7420706F696E742093
:106BA0006E6F7420726561636861626C652E205936
:106BB00020636F6F7264696E6174653A0000000053
:106BC00040410000C04000005C430000C0400000A5
:106BD0005C430000464300004041000046434974C6
:106BE00065726174696F6E3A200043616C6962720C
:106BF0006174696F6E206661696C65642120436809
:106C000065636B20746865206178657320616E64CC
:106C10002072756E20616761696E2E006F6B0A00CD
:106C200073746172740A004D4D5532206669726D3D
:106C3000776172652076657273696F6E20696E7612
:106C4000616C69642E205265717569726564207685
:106C5000657273696F6E3A206275696C64206E7537
:106C60006D626572202564206F72206869676865AF
:106C7000722E006673656E736F725F73746F705FF0
:106C8000616E645F736176655F7072696E740A002D
:106C90004D4D55203D3E20276F6B270A004D4D5529
:106CA000203D3E20276F6B270A002564004D4D557F
:106CB000203D3E20276F6B272C20726573756D6514
:106CC000207072696E740A004D4D552072657472A1
:106CD0007920617474656D7074206E722E20256445
:106CE0000A004D4D55203D3E20276F6B270A00417D
:106CF0000A004D4D55203C3D202741270A004D36C6
:106D00003030004D363030204155544F00505255F0
:106D10005341206673656E736F725F7265636F7641
:106D20006572002568687500410A004D4D55203C8C
:106D30003D202741270A0050300A004D25640A00F3
:106D40004D4D55203C3D20274D2564270A005730E6
:106D50000A004D4D55203C3D20275730270A00534F
:106D6000330A004D4D55203C3D20275333270A0060
:106D700052300A004D4D55203C3D20275230270A05
:106D8000004B25640A004D4D55203C3D20274B25E6
:106D900064270A004525640A004D4D55203C3D20DE
:106DA00027452564270A0055300A004D4D55203CE3
:106DB0003D20275530270A0043300A004D4D55200D
:106DC0003C3D20274330270A004C25640A004D4DE6
:106DD00055203C3D20274C2564270A005425640A91
:106DE000004D4D55203C3D2027542564270A004D79
:106DF0004D55202D20454E41424C454400256868A4
:106E0000750050300A004D310A004D4D55203C3D73
:106E100020274D31270050300A004D4D5520766512
:106E20007273696F6E2076616C6964004D4D5520F8
:106E30003D3E202725646F6B270A002575005332DD
:106E40000A004D4D55203C3D2027533227004D4D23
:106E500055203D3E202725646F6B270A00257500CD
:106E60004D4D55206E6F7420726573706F6E64693E
:106E70006E67202D2044495341424C454400533114
:106E80000A004D4D55203C3D2027533127004D4DE4
:106E900055203D3E2027737461727427006572721D
:106EA0006F723A20756E6B6E6F776E206D6F7665C0
:106EB0000A006E6F206D6F76650A00542D636F6453
:106EC000650A00756E6C6F61640A006C6F61640A1C
:106ED000006D6D755F6765745F726573706F6E735B
:106EE00065202D20626567696E206D6F76653A209A
:106EF000006D6D755F6765745F726573706F6E733B
:106F00006528292072657475726E696E673A20254E
:106F1000640A00556E6C6F6164696E672066696E05
:106F2000697368656420320A00556E6C6F61642075
:106F3000320A00556E6C6F6164696E672066696E17
:106F4000697368656420310A00556E6C6F61642056
:106F5000310A004D4D55207374617274732072654F
:106F600073706F6E64696E670A004D4D55206E6FC9
:106F70007420726573706F6E64696E670A0000003A
:106F8000803F555585410000803F0000C84100000A
:106F90000040555505420000C03F00004842000037
:106FA000204055558542000070C1ABAAA6420000A2
:106FB00060C10000A0410000C0C0000020410000EE
:106FC0002041ABAA3A41000020C15555D5400000F0
:106FD00048C2555505424D373031204530004D37B8
:106FE0003031204531004D373031204532004D37AA
:106FF0003031204533004D373031204534004D3796
:107000003031204534004D373031204533004D3785
:107010003031204532004D373031204531004D3779
:1070200030312045300046696C616D656E74206EAC
:1070300072206F7574206F662072616E6765210023
:107040004164646974696F6E616C206C6F61642067
:10705000617474656D7074206E722E2025640A0050
:10706000000E1315110E0000000412091204000096
:10707000001C1F11111F00000006191803130C003B
:10708000040E1F041C000000040A0A0A0A11110E53
:10709000001F1511151F0000000103161C08000039
:1070A0000000110A04110A040C12120C0000000066
:1070B0002563252D31382E3138532563002563256E
:1070C0002E3135533A2573253364002563252E313F
:1070D00032533A25732500457872656D65207370CB
:1070E000616E206F6620746865205A2076616C7529
:1070F0006573210022206661696C65643A204275DF
:10710000666665722066756C6C21002200446972A7
:107110003A2025730054494D454F55543A004D319E
:1071200031300046756C6C20525820427566666599
:1071300072006673656E736F725F726573746F72DF
:10714000655F7072696E745F616E645F636F6E74A9
:10715000696E75650A0044495341424C45440A0032
:10716000454E41424C4544004653656E736F722054
:1071700025530A00504154393132355F696E6974C4
:107180003A256868750A00504154393132355F69D3
:107190006E69743A256868750A0050415439313275
:1071A00035206E6F7420726573706F6E64696E67E0
:1071B0002028256429210A00746D63323133305F41
:1071C000686F6D655F656E74657228617865735F61
:1071D0006D61736B3D307825303278290A00746D0B
:1071E00063323133305F686F6D655F657869742035
:1071F000746D63323133305F73675F686F6D696ED2
:10720000675F617865735F6D61736B3D30782530C2
:1072100032780A00726573756C742076616C7565DE
:107220003A2025640A0020693D25326420636E748B
:107230003D2532642076616C3D2532640A00636C22
:107240007573746572733A0A0020693D25326420B3
:10725000737465703D2532640A00736F72746564DF
:107260002073616D706C65733A0A003A200020202B
:10727000202020202020202020202020202020200E
:107280002000203A20002020202020202020202024
:10729000202020202020202020200020202020200E
:1072A0002020202020202020002573006D6D00006C
:1072B00059005800580059005A002563252E3132D4
:1072C000533A2573252B30362E33660020003E00BE
:1072D0003E0020003E003E0054656D706572617492
:1072E0007572652063616C6962726174696F6E208A
:1072F0006661696C65642E20436F6E74696E756596
:107300002077697468207072657373696E67207482
:107310006865206B6E6F622E0054656D70657261DA
:10732000747572652063616C6962726174696F6EF5
:1073300020646F6E652E20436F6E74696E756520D4
:1073400077697468207072657373696E67207468FA
:1073500065206B6E6F622E0044697361626C6520FC
:107360006661726D206D6F6465004661726D206E9E
:10737000756D626572004D3834004D34340047320B
:10738000382057004739390044697361626C6520C1
:107390006661726D206D6F64653F0043686F6F7347
:1073A0006520636F6C6F723A004661726D206E7576
:1073B0006D626572001B5B303B304825531B5B31AF
:1073C0003B314825532020252D33641B5B323B3154
:1073D0004825532020252D33641B5B333B31480067
:1073E0001B5B303B304825531B5B313B31482553F9
:1073F0002020252D33641B5B323B31482553202050
:10740000252D33641B5B333B3148255320252D3319
:1074100064001B5B303B304825531B5B313B3148DC
:1074200025532020252D33641B5B323B31482553E7
:107430002020252D33641B5B333B3148255320200E
:107440005820252D336420205920252D3364001B1E
:107450005B303B304825531B5B313B314825532083
:1074600020252D33641B5B323B31482553202025DA
:107470002D33641B5B333B31482553202058202596
:107480002D336420205920252D3364001B5B323BB3
:10749000314825533A2020256425631B5B333B315B
:1074A0004850494E44413A2020202025642563005D
:1074B0001B5B303B314825533A202020256425634F
:1074C0001B5B313B314825533A20202020202025CA
:1074D000642563001B5B313B31485057523A2020F2
:1074E0002020202025642E25303164561B5B323B42
:1074F00031484245443A20202020202025642E2572
:1075000030316456001B5B303B314825531B5B31E7
:107510003B3248582025641B5B323B3248592025BA
:107520006400464C4558202D20203234302F353011
:107530000050502020202D20203235342F31303083
:107540000048495053202D20203232302F31303026
:107550000041425320202D20203235352F3130304C
:107560000050455420202D20203233302F38350054
:10757000504C4120202D20203231352F3630004311
:107580004152424F4E20202D20203330302F3435B1
:1075900000414253202020202D20203235352F312C
:1075A0003030006E6F7A7A6C65202D2020323530B5
:1075B0002F30006661726D2020202D202032353062
:1075C0002F363000466C6173684169722049502043
:1075D000416464723A004D4D553220202020202015
:1075E000204E2F410025642E25642E25642D256410
:1075F000002046573A004A616E2031342032303242
:107600003000453344763666756C6C0045494E5300
:10761000795F31306100315F37356D6D5F4D4B33D0
:10762000002D2D2D2D2D2D2D2D2D2D2D2D002072AC
:1076300065706F20556E6B6E6F776E0020332E373E
:107640002E312D32323636004669726D77617265A1
:107650003A0025642E25642E25642E2564004D37BE
:107660003032004D373031004D373032004D373039
:107670003100464C4558202D20203234302F3530F3
:107680000050502020202D20203235342F31303032
:107690000048495053202D20203232302F313030D5
:1076A0000041425320202D20203235352F313030FB
:1076B0000050455420202D20203233302F38350003
:1076C000504C4120202D20203231352F36300045BE
:1076D00078747275646572001F1F1F1F1F1F1F1FA4
:1076E0002E002E004E6F77206672657368206669E3
:1076F0006C653A20004E6F7720646F696E67206674
:10770000696C653A20002220706F7300222070613E
:1077100072656E743A2200535542524F5554494E89
:10772000452043414C4C207461726765743A2200D5
:10773000747279696E6720746F2063616C6C20735A
:1077400075622D67636F64652066696C6573207769
:1077500069746820746F6F206D616E79206C657636
:10776000656C732E204D4158206C6576656C2069E0
:10777000733A00496E76616C696420504944206315
:10778000616C2E20726573756C74732E204E6F744D
:107790002073746F72656420746F20454550524F9A
:1077A0004D2E004D353030004731205A31352046BE
:1077B00031353030004739310047312058353020DD
:1077C0005931393020453020463730303000473984
:1077D00030004D373032004D3730322043004D37C6
:1077E00030322055004D373032004D373032204393
:1077F000004731205A313520463135303000473985
:10780000310047312058353020593139302045304A
:10781000204637303030004D383300473930004D86
:107820003834004D313034205330004D3834004D61
:107830003730322043004731205831302059313819
:1078400030204634303030004731205A3130204625
:10785000313330302E303030004D31343020533021
:10786000004D31303420533000473120452D302E2B
:1078700030373530302046323130302E30303030F5
:1078800030004D31303700473120583530205935E0
:10789000352045332E3632373733004731205832C2
:1078A0003030205935352045302E343933383600C4
:1078B00047312058323030205937352045332E3665
:1078C000323737330047312058353020593735208B
:1078D00045302E3439333836004731205835302082
:1078E0005939352045332E3632373733004731206A
:1078F00058323030205939352045302E343933381C
:10790000360047312058323030205931313520454A
:10791000332E36323737330047312058353020592F
:107920003131352045302E34393338360047312057
:1079300058353020593133352045332E36323737DC
:10794000330047312058323030205931333520450B
:10795000302E36363137340047312058323030201F
:10796000593135352045322E3632373733004731DD
:1079700020583130302059313535204532004731DB
:107980002058373520593135352045322E350047BE
:1079900031204631303830004731205A302E3135D1
:1079A000302046373230302E3030300047312058CA
:1079B00035302059313535004731204634303030AC
:1079C000004D323034205331303030004731205AAE
:1079D000352046373230302E3030300047312045A8
:1079E0002D312E35303030302046323130302E308F
:1079F00030303030004D38330047393000473231B5
:107A0000004739322045302E300047312058313080
:107A1000302E30204531322E352046313030302E58
:107A200030004731205836302E302045392E302056
:107A300046313030302E300047312058352E30203E
:107A400045342E302046313030302E300047312042
:107A50005A302E32302046313030302E300047310F
:107A6000205835352E3020453235204631343030DF
:107A70002E3000473120592D322E30204631303003
:107A8000302E3000473120583234302E30204532ED
:107A9000352E30202046323230302E3000473932F9
:107AA0002045302E30004731205A302E33204631C9
:107AB0003030302E30004731205835352E302045BB
:107AC000382E302046323030302E300047312058AA
:107AD000352E30204533322E302046313830302E8E
:107AE00030004731205835352E30204533322E3086
:107AF0002046313037332E30004731205A302E3473
:107B00002046313030302E3000473120592D332E71
:107B1000302046313030302E30004D383300473978
:107B2000322045302E3000473238004D3130392078
:107B300053323135004D31393020533630004D311C
:107B4000343020533630004D31303420533231350B
:107B5000004D313037002046004731205A00204682
:107B60000047312045004D3833006F6B0A006275C5
:107B700073793A2070617573656420666F7220694D
:107B80006E70757400627573793A207061757365F3
:107B90006420666F72207573657200627573793A3E
:107BA0002070726F63657373696E67000000211047
:107BB000422063308440A550C660E7700881299157
:107BC0004AA16BB18CC1ADD1CEE1EFF131121002FF
:107BD00073325222B5529442F772D66239931883A7
:107BE0007BB35AA3BDD39CC3FFF3DEE362244334CB
:107BF00020040114E664C774A44485546AA54BB5F7
:107C000028850995EEE5CFF5ACC58DD5533672269E
:107C100011163006D776F6669556B4465BB77AA746
:107C200019973887DFF7FEE79DD7BCC7C448E558EA
:107C30008668A7784008611802282338CCC9EDD996
:107C40008EE9AFF9488969990AA92BB9F55AD44A3E
:107C5000B77A966A711A500A333A122AFDDBDCCBE6
:107C6000BFFB9EEB799B588B3BBB1AABA66C877C0A
:107C7000E44CC55C222C033C600C411CAEED8FFD36
:107C8000ECCDCDDD2AAD0BBD688D499D977EB66EDE
:107C9000D55EF44E133E322E511E700E9FFFBEEF86
:107CA000DDDFFCCF1BBF3AAF599F788F8891A98148
:107CB000CAB1EBA10CD12DC14EF16FE18010A10032
:107CC000C230E3200450254046706760B983989322
:107CD000FBA3DAB33DC31CD37FE35EF3B102901282
:107CE000F322D2323542145277625672EAB5CBA5EE
:107CF000A89589856EF54FE52CD50DC5E234C324D2
:107D0000A01481046674476424540544DBA7FAB7C1
:107D10009987B8975FE77EF71DC73CD7D326F23621
:107D20009106B01657667676154634564CD96DC90D
:107D30000EF92FE9C899E9898AB9ABA94458654871
:107D400006782768C018E1088238A3287DCB5CDB61
:107D50003FEB1EFBF98BD89BBBAB9ABB754A545AC1
:107D6000376A167AF10AD01AB32A923A2EFD0FED2D
:107D70006CDD4DCDAABD8BADE89DC98D267C076C11
:107D8000645C454CA23C832CE01CC10C1FEF3EFF01
:107D90005DCF7CDF9BAFBABFD98FF89F176E367E61
:107DA000554E745E932EB23ED10EF01E7C3C3E5E6C
:107DB0002B3D3F2F5B5D3B2C2A225C0024F4D4300A
:107DC00050C38E20C2A24017828B7011127A910D7F
:107DD000816CD90AA861E108C7586607615143065A
:107DE0001E4B5D05C145A7041A411104093D9803C6
:107DF000713931034036DB0265339102D4305402CD
:107E0000802E1D02632CEE01752AC501B028A00149
:107E1000102781018F2564012B244B01E0223401BE
:107E2000AC211F018D200D01801FFC00841EED0080
:107E3000971DDF00B81CD200E61BC600201BBC004B
:107E4000641AB200B219A8000A19A0006A189900B1
:107E5000D117910040178B00B516840031167E00B3
:107E6000B31579003A157300C7146F0058146A00EF
:107E7000EE1366008813630025135E00C7125B00D3
:107E80006C12570015125400C111510070114F00AF
:107E900021114B00D61049008D10470046104400B8
:107EA00002104200C00F4000800F3E00420F3C0015
:107EB000060F3B00CB0E3800930E37005C0E3500EA
:107EC000270E3400F30D3200C10D3100900D30004B
:107ED000600D2E00320D2D00050D2C00D90C2B004D
:107EE000AE0C2900850C29005C0C2700350C2700FE
:107EF0000E0C2600E80B2400C40B2400A00B23006A
:107F00007D0B23005A0B2100390B2100180B200098
:107F1000F80A1F00D90A1E00BB0A1E009D0A1D0098
:107F2000800A1D00630A1C00470A1B002C0A1B0064
:107F3000110A1A00F7091A00DD091900C40919000D
:107F4000AB091900920917007B0918006309170093
:107F50004C09160036091600200916000A091500FA
:107F6000F5081500E0081400CC081400B808140047
:107F7000A4081400900813007D0812006B08130079
:107F80005808120046081200340811002308110096
:107F90001208110001081100F0071000E00710009E
:107FA000D0071000C0071000B0070F00A107100095
:107FB00091070E0083070F0074070F0065070E007E
:107FC00057070E0049070E003B070D002E070E0055
:107FD00020070D0013070D0006070D00F9060C0021
:107FE000ED060D00E0060C00D4060C00C8060C00DF
:107FF000BC060C00B0060C00A4060B0099060C0091
:108000008D060B0082060B0077060B006C060B003A
:1080100061060A0057060B004C060A0042060A00D9
:1080200038060A002E060A0024060A001A060A006C
:108030001006090007060A00FD050900F4050900FD
:10804000EB050900E2050900D9050900D005090082
:10805000C7050900BE050900B5050800AD05080003
:10806000A50509009C050800940508008C0508007A
:10807000840508007C050800740508006C050700ED
:10808000650508005D050700560508004E05070058
:1080900047050700400508003805070031050700BF
:1080A0002A050700230507001C0506001605070022
:1080B0000F0507000805060002050700FB0406007F
:1080C000F5040700EE040600E8040600E2040700D9
:1080D000DB040600D5040600CF040600C904060030
:1080E000C3040600BD040600B7040600B104050081
:1080F000AC040600A6040600A00405009B040600CC
:1081000095040500900406008A0405008504050016
:10811000800406007A04050075040500700405005B
:108120006B04050066040500610405005C0405009D
:1081300057040500520405004D04050048040500DD
:10814000430405003E0404003A040500350405001C
:10815000300404002C040500270404002304050057
:108160001E0404001A04040016040500110404008F
:108170000D040400090405000404040000040400C4
:10818000FC030400F8030400F4030400F0030400FB
:10819000EC030400E8030400E4030400E00304002B
:1081A000DC030400D8030400D4030400D00304005B
:1081B000CC030400C8030300C503030024F404D95E
:1081C000201BC40C5C0E9804C4095F026507710192
:1081D000F405F900FB04B30048048700C1036900FB
:1081E0005803550003034500BE023A0084023100E3
:1081F00053022A002902250004022000E4011C0089
:10820000C8011900AF011700980114008401130080
:10821000710110006101100051010E0043010D00B9
:1082200036010B002B010B0020010B00150109008A
:108230000C01090003010800FB000800F30008001E
:10824000EB000700E4000600DE000600D800060090
:10825000D2000600CC000500C7000500C2000500E2
:10826000BD000400B9000400B5000400B100040022
:10827000AD000400A9000400A5000300A200030053
:108280009F0004009B00030098000300950002007B
:1082900093000300900003008D0002008B00030098
:1082A00088000200860002008400030081000200B2
:1082B0007F0002007D0002007B00020079000200C6
:1082C00077000100760002007400020072000100D5
:1082D000710002006F0002006D0001006C000200DE
:1082E0006A000100690002006700010066000100E9
:1082F00065000100640002006200010061000100ED
:10830000600001005F0002005D0001005C000100F0
:108310005B0001005A0001005900010058000100F3
:1083200057000100560001005500010054000100F3
:1083300053000000530001005200010051000100F1
:10834000500001004F0001004E0000004E000100EF
:108350004D0001004C0001004B0000004B000100EB
:108360004A000100490001004800000048000100E7
:1083700047000100460000004600010045000000E3
:1083800045000100440001004300000043000100DB
